:100000000C9410010C9431010C9431010C943101C9
:100010000C9431010C9431010C9431010C94310198
:100020000C9431010C9431010C9431010C94310188
:100030000C9431010C9431010C9423050C94310182
:100040000C9431010C9431010C9431010C94310168
:100050000C9431010C9431010C9431010C94310158
:100060000C9431010C946B050C9431010C9431010A
:100070000C94DE050C9431010C9431010C94310187
:100080000C9431010C9431010C9431010C94310128
:100090000C9431010C9431010C9431010C94310118
:1000A0000C9431010C9431010C9431010C94310108
:1000B0000C9431010C9431010C9431010C943101F8
:1000C0000C9431010C9431010C9431010C943101E8
:1000D0000C9431010C9431010C9431010C943101D8
:1000E0000C9431010C9431010C9437070C943101BC
:1000F0000C9431010C94AA070C9431010C94310139
:100100000C9431010C9431010C9431010C943101A7
:100110000C9431010C9431010C9431010C94310197
:100120000C9431010C9431010C9431010C94310187
:100130000C9431010C9431010C9431010C94310177
:100140000C9431010C9431010C9431010C94310167
:100150000C9431010C9431010C9431010C94310157
:100160000C9451060C9431010C9431010C94C4068A
:100170000C9431010C9431010C9431010C94310137
:100180000C9431010C9431010C9431010C94310127
:100190000C9431010C9431010C9431010C94310117
:1001A0000C9431010C9431010C9431010C94310107
:1001B0000C9431010C9431010C9431010C943101F7
:1001C0000C9431010C9431010C9431010C943101E7
:1001D0000C9431010C9431010C9431010C941D08E4
:1001E0000C9431010C9431010C94A9060C94020872
:1001F0000C94C3050C94E2070C948F070C948906A9
:100200000C941C070C9416060C9455080C94A3052A
:100210000C946F070C94FC060C9436060C9475082D
:1002200011241FBECFEFCDBFDFE3DEBF00E00CBF68
:1002300010E2A0E0B0E2EEE5F1E100E00BBF02C0A9
:1002400007900D92A632B107D9F729E2A6E2B0E2F3
:1002500001C01D92A833B207E1F70E942A040C9452
:10026000AD080C940000E2E8F0E283EC95E08083B6
:10027000918386E396E08283938389EA96E0848380
:1002800095838CE197E0868397838FE897E080875A
:10029000918782E098E08287938785E798E084875A
:1002A00095870895CF93C62FE62FF0E0EE0FFF1F3E
:1002B000EE57FF4D0190F081E02D19958C2FCF91D5
:1002C0000C9443038F929F92AF92BF92CF92DF9292
:1002D000EF92FF920F931F93CF93DF93CDB7DEB7CB
:1002E000AC97CDBFDEBF6E0186E2C80ED11C87E0A1
:1002F000F60111928A95E9F7CE0104960E94070350
:10030000882309F445C02C81EDE2F0E2D60190E0AB
:1003100031E0222339F04081241721F0203E19F4E6
:10032000963009F43C939F5F11963196973089F788
:1003300095E599839EEF9A839B83082F10E00D5FCC
:100340001F4FE1E0F0E0EC0FFD1FE00FF11F8DEF1C
:100350008083812C882D90E008171907CCF0560176
:10036000912CEE24E394F12CEC0EFD1EE80EF91E08
:10037000F50181915F01882329F0692DF7018081C2
:100380000E9452019394F7E09F12F2CF8394E2CF40
:10039000AC96CDBFDEBFDF91CF911F910F91FF9043
:1003A000EF90DF90CF90BF90AF909F908F90089587
:1003B000E6E2F0E2ADE2B0E28081882329F08150EC
:1003C0008083811101C01C923196119680E2ED323A
:1003D000F80791F70895CF93DF93E0913B20E73042
:1003E00048F4F0E0EE0FFF1FE85EFF4D0190F08152
:1003F000E02D02C0E5E5F8E01995EC01CF3F8FEF65
:10040000D80709F47EC080913B20CE3FD105C1F4CE
:10041000282F30E0F901ED5BFF4D90819E3F81F484
:10042000F901E45CFF4D908191110AC0F901EC5C87
:10043000FF4D1082F901E65BFF4D81E080834EC0E5
:10044000282F30E0A901465B5F4DDA019C91913085
:1004500009F044C0CD3FD10559F50E943C032091DD
:100460003B2030E0F901E35DFF4DC90146E0880F14
:10047000991F4A95E1F780579F4DDC0111964C91E9
:100480004083F901EA5DFF4D44E14083F901EC5CF2
:10049000FF4D60810E94C40280913B2090E0FC01EE
:1004A000E65BFF4D1082FC01EC5CFF4D108216C034
:1004B000D901AC5CBF4D8C91F90196E0EE0FFF1FA6
:1004C0009A95E1F7E057FF4DE80FF11DC0838F5F6C
:1004D0008C93803419F4FA0110821C92E0913B2035
:1004E000F0E0DF01AD5BBF4D8C91E45CFF4D8535E5
:1004F00031F4CE3FD10519F481E0808301C0108230
:10050000CC9380913B208F5F873018F480933B2001
:1005100002C010923B20DF91CF9108952FB7F8943D
:10052000109252008091500088608093500080911A
:1005300050008F7E8093500088ED84BF84EC8093C0
:10054000550080915000806180935000809151004F
:1005500084FFFCCF80914100807898ED94BF809318
:10056000410080914000887F846094BF8093400068
:1005700080915000887F809350008091B4008C7FE0
:100580008093B4002FBF08950F931F93CF93FC0166
:10059000462F8DEF860F8E31B0F5C09152200C2F73
:1005A00010E0C801019668E270E00E947C0820918A
:1005B000512030E08217930731F1208131E2309FE2
:1005C000C001319F900D1124DC01A05BBD4D11963F
:1005D0002C931197218112962C9312972EEF240FB2
:1005E0002C9350E042505109BF016E5F7F4F8D5AEE
:1005F0009D4D0E94A408CF5FC83219F0C0935220CD
:1006000002C010925220CF911F910F910895CF9365
:10061000DF93E091512020915220E21302C080E04C
:1006200028C061E26E9FF0011124E05BFD4D218145
:10063000DC012C93D09151206D9FB0011124FB015E
:10064000E05BFD4D228111962C93C081C13238F7B9
:100650004C2F50E06D5A7D4D02960E94A408DF5F3A
:10066000D83219F0D093512002C01092512082E06C
:100670008C0FDF91CF910895E82FF0E0E35AFF4D02
:1006800084E680830895E82FF0E0EB5AFF4D84E67E
:100690008083089590E0FC01E050F04E208121110C
:1006A00013C0FC01E05FFF4D81E090E0008002C0DC
:1006B000880F991F0A94E2F7662319F080930606C3
:1006C0000895809305060895213091F4FC01E05FC0
:1006D000FF4D81E090E0008002C0880F991F0A94CE
:1006E000E2F7662319F08093260608958093250685
:1006F000089590E0FC01E050F04E2081211113C0DC
:10070000FC01E85FFF4D81E090E0008002C0880FAF
:10071000991F0A94E2F7662319F08093060608955C
:10072000809305060895213091F4FC01E85FFF4DA8
:1007300081E090E0008002C0880F991F0A94E2F7E0
:10074000662319F080932606089580932506089560
:10075000EF92FF920F931F93CF938DE5E82E80E2E7
:10076000F82E05E510E2C0E0F7018081843621F41F
:1007700061E08C2F0E944A03F7018081882341F0B9
:1007800081508083811104C060E08C2F0E944A0355
:10079000F8018081843621F461E08C2F0E94790376
:1007A000F8018081882341F081508083811104C049
:1007B00060E08C2F0E947903CF5FFFEFEF1AFF0AF2
:1007C0000F5F1F4FC83081F6CF911F910F91FF909F
:1007D000EF90089580916806982F90718072209113
:1007E0005420921729F0911103C024E6209364202D
:1007F00020915320821729F0811103C024E6209311
:100800005C2090935420809353200895EDE5F0E20E
:1008100084E681932FEF33EC49E021503040404093
:10082000E1F700C0000050E2E536F50791F7E5E595
:10083000F0E28DE590E224E621933FEF43EC59E0AE
:10084000315040405040E1F700C000008E179F0734
:1008500099F7089598ED94BF81E080939600F894FD
:100860008091A2008873836094BF8093A20010924D
:10087000A1000E948E020E9433010E9460040E9427
:10088000D5040E9457050E94CA050E943D060E9499
:10089000B0060E9423070E9496070E9409080E9442
:1008A000DC0478948FEF80930406809324060E94E2
:1008B00006040E94EB010E9462010E94EA03F9CF44
:1008C000E0E0F6E014829FEF9083108A118A128A8A
:1008D000138A148A158A168A178A8185807F8187F0
:1008E00012861386E0E2F6E014829083108A118A61
:1008F000128A138A148A158A168A178A8185807F3C
:10090000818712861386E0E4F6E088E8848380839A
:10091000108A118A128A138A148A158A168A178AEB
:100920009185907F918712861386E0E6F6E08483B6
:100930008083108A118A128A138A148A158A168A69
:10094000178A9185907F918712861386E0E8F6E0FA
:1009500084838083108A118A128A138A148A158AE2
:10096000168A178A8185807F818712861386E0EA3E
:10097000F6E088E084838083108A118A128A138AC1
:10098000148A158A168A178A8185807F8187128644
:100990001386E0EEF7E014821082108A118A8185B6
:1009A000807F8187128613860895E0EBF0E080E176
:1009B000828382E3838308952FB7F894E0E0F8E020
:1009C00010828CE0818784E08083118213821482FC
:1009D00081E086831782A0E9B8E08C918E7F8C93AA
:1009E000A0E9B0E019968C9119978E7F98ED94BF8D
:1009F00019968C93A0E8B8E01C9213968C911397EB
:100A0000887E13968C93139712961C9212971496C5
:100A10008C91149714969C9114978470892B14963A
:100A20008C938485848710A211A28FE39CE986A30E
:100A300097A310A611A612A613A614A615A616A66D
:100A400017A62FBF08951F920F920FB60F92112471
:100A50000BB60F922F933F934F935F936F937F93B8
:100A60008F939F93AF93BF93EF93FF930E94A8033D
:100A7000809165208F5F843618F48093652004C0D0
:100A8000109265200E94D801FF91EF91BF91AF9124
:100A90009F918F917F916F915F914F913F912F9196
:100AA0000F900BBE0F900FBE0F901F90189588E00F
:100AB00080934506E0EAF8E083E085838381807CCB
:100AC0008062838385EE86838CEB87838481807E3E
:100AD0008861848308951F920F920FB60F9211249C
:100AE0000BB60F928F939F93EF93FF938091A10882
:100AF0009091A0088C71E1F4E091812081E08E0F4B
:100B000080938120F0E0E858F74D90838091812018
:100B1000803411F41092812080917F208F5F809328
:100B20007F20803429F410927F2081E080937E2002
:100B3000FF91EF919F918F910F900BBE0F900FBE81
:100B40000F901F90189580917F208823C9F0E09125
:100B5000802081E08E0F80938020F0E0E858F74DF0
:100B6000808190918020903411F410928020F8942C
:100B700090917F20915090937F20789490E00895F9
:100B80008FEF9FEF08959091A10895FFFCCF809380
:100B9000A008089580E880934506E0EBF8E083E044
:100BA00085838381807C8062838385EE86838CEB62
:100BB00087838481807E8861848308951F920F9249
:100BC0000FB60F9211240BB60F928F939F93EF9352
:100BD000FF938091B1089091B0088C71E1F4E0919D
:100BE0007D2081E08E0F80937D20F0E0E850F84D6D
:100BF000908380917D20803411F410927D2080912B
:100C00007B208F5F80937B20803429F410927B209F
:100C100081E080937A20FF91EF919F918F910F90C7
:100C20000BBE0F900FBE0F901F90189580917B20E8
:100C30008823C9F0E0917C2081E08E0F80937C2096
:100C4000F0E0E850F84D808190917C20903411F4D0
:100C500010927C20F89490917B20915090937B206F
:100C6000789490E008958FEF9FEF08959091B108E8
:100C700095FFFCCF8093B008089588E080936506C7
:100C8000E0EAF9E083E085838381807C806283836E
:100C900085EE86838CEB87838481807E8861848364
:100CA00008951F920F920FB60F9211240BB60F9258
:100CB0008F939F93EF93FF938091A1099091A00947
:100CC0008C71E1F4E091792081E08E0F809379209E
:100CD000F0E0E858F84D908380917920803411F449
:100CE00010927920809177208F5F809377208034D5
:100CF00029F41092772081E080937620FF91EF9184
:100D00009F918F910F900BBE0F900FBE0F901F9071
:100D10001895809177208823C9F0E091782081E0B0
:100D20008E0F80937820F0E0E858F84D8081909104
:100D30007820903411F410927820F89490917720D4
:100D4000915090937720789490E008958FEF9FEFE3
:100D500008959091A10995FFFCCF8093A009089573
:100D600080E880936506E0EBF9E083E0858383818A
:100D7000807C8062838385EE86838CEB878384818D
:100D8000807E8861848308951F920F920FB60F9220
:100D900011240BB60F928F939F93EF93FF93809143
:100DA000B1099091B0098C71E1F4E091752081E076
:100DB0008E0F80937520F0E0E854F84D9083809179
:100DC0007520803411F410927520809173208F5F0C
:100DD00080937320803429F41092732081E08093F3
:100DE0007220FF91EF919F918F910F900BBE0F900A
:100DF0000FBE0F901F901895809173208823C9F023
:100E0000E091742081E08E0F80937420F0E0E8542C
:100E1000F84D808190917420903411F410927420D8
:100E2000F89490917320915090937320789490E06F
:100E300008958FEF9FEF08959091B10995FFFCCF32
:100E40008093B009089588E080938506E0EAFAE08F
:100E500083E085838381807C8062838385EE8683C3
:100E60008CEB87838481807E8861848308951F92C0
:100E70000F920FB60F9211240BB60F928F939F9380
:100E8000EF93FF938091A10A9091A00A8C71E1F4F5
:100E9000E091712081E08E0F80937120F0E0E854A2
:100EA000F74D908380917120803411F4109271205D
:100EB00080916F208F5F80936F20803429F410928F
:100EC0006F2081E080936E20FF91EF919F918F9131
:100ED0000F900BBE0F900FBE0F901F901895809132
:100EE0006F208823C9F0E091702081E08E0F8093FD
:100EF0007020F0E0E854F74D80819091702090349C
:100F000011F410927020F89490916F20915090936A
:100F10006F20789490E008958FEF9FEF089590915F
:100F2000A10A95FFFCCF8093A00A089580E88093E2
:100F30008506E0EBFAE083E085838381807C806234
:100F4000838385EE86838CEB87838481807E8861B2
:100F5000848308951F920F920FB60F9211240BB63F
:100F60000F928F939F93EF93FF938091B10A90918B
:100F7000B00A8C71E1F4E0916D2081E08E0F8093D6
:100F80006D20F0E0E850F74D908380916D20803423
:100F900011F410926D2080916B208F5F80936B20F5
:100FA000803429F410926B2081E080936A20FF91B5
:100FB000EF919F918F910F900BBE0F900FBE0F90EE
:100FC0001F90189580916B208823C9F0E0916C20C8
:100FD00081E08E0F80936C20F0E0E850F74D808127
:100FE00090916C20903411F410926C20F8949091B0
:100FF0006B20915090936B20789490E008958FEF40
:101000009FEF08959091B10A95FFFCCF8093B00AAD
:10101000089588E08093A506E0EAFBE083E08583FD
:101020008381807C8062838385EE86838CEB8783DB
:101030008481807E8861848308951F920F920FB609
:101040000F9211240BB60F928F939F93EF93FF9300
:101050008091A10B9091A00B8C71E1F4E09169203B
:1010600081E08E0F80936920F0E0E85CF74D90837B
:1010700080916920803411F410926920809167205A
:101080008F5F80936720803429F41092672081E07D
:1010900080936620FF91EF919F918F910F900BBEEF
:1010A0000F900FBE0F901F90189580916720882396
:1010B000C9F0E091682081E08E0F80936820F0E015
:1010C000E85CF74D808190916820903411F4109283
:1010D0006820F894909167209150909367207894BD
:1010E00090E008958FEF9FEF08959091A10B95FFE9
:1010F000FCCF8093A00B089597FB072E16F4009465
:1011000007D077FD09D00E94900807FC05D03EF477
:10111000909581959F4F0895709561957F4F0895A3
:10112000AA1BBB1B51E107C0AA1FBB1FA617B7070D
:1011300010F0A61BB70B881F991F5A95A9F7809529
:101140009095BC01CD010895FB01DC0102C0019026
:0E1150000D9241505040D8F70895F894FFCF0B
:10115E00000000000101010101030507010305075D
:10116E000002040600020406A30516068906FC0604
:06117E006F07E2075508AF
:00000001FF
